:020000040800F2
:1000000000800020A91B00085504000857040008C0
:10001000590400085B0400085D04000800000000AB
:100020000000000000000000000000005F04000865
:100030006104000800000000630400086504000873
:10004000F91B0008F91B0008F91B0008F91B000840
:10005000F91B0008F91B0008F91B0008F91B000830
:10006000F91B0008F91B0008F91B0008F91B000820
:10007000F91B0008F91B0008F91B0008F91B000810
:10008000F91B000800000000F91B0008F91B00081C
:10009000F91B0008F91B0008F91B0008F91B0008F0
:1000A000F91B0008F91B0008F91B0008F91B0008E0
:1000B000F91B0008F91B0008F91B0008F91B0008D0
:1000C000F91B0008F91B0008F91B0008F91B0008C0
:1000D000F91B0008F91B0008F91B0008F91B0008B0
:1000E000F91B0008F91B0008F91B0008F91B0008A0
:1000F000F91B0008F91B0008F91B000800000000AC
:1001000000000000F91B000800000000F91B0008B7
:10011000F91B000800000000F91B0008F91B00088B
:10012000F91B0008F91B0008F91B0008F91B00085F
:10013000F91B00080000000000000000F91B000887
:10014000F91B0008F91B0008000000000000000077
:10015000000000000000000000000000000000009F
:10016000000000000000000000000000F91B000873
:10017000F91B000800000000000000000000000063
:1001800000000000F91B0008000000000000000053
:10019000000000000000000000000000000000005F
:1001A0000000000000000000F91B0008F91B000817
:1001B000F91B0008F91B0008F91B000800000000EB
:1001C00000000000F91B0008000000000000000013
:0801D000F91B0008F91B0008EF
:1001D80053B94AB9002908BF00281CBF4FF0FF31A6
:1001E8004FF0FF3000F00CB8ADF1080C6DE904CE0B
:1001F80001F02CFDDDF804E0DDE9022304B07047CE
:10020800704700BF72B6FEE710B594B006AC38224E
:100218000021204601F0EDFC002301930293039393
:10022800049305934FF4007000F038F90223069305
:100238004FF48072099240220A920D930E930F9305
:1002480014221092119312931393204600F0E6FDA6
:1002580068B90F2301930323029303900490059038
:10026800022101A801F092F818B914B010BDFFF7E7
:10027800C9FFFFF7C7FF000008B500F06DFDFFF7E5
:10028800C3FF00F01BF800F069F80B4C00224FF494
:100298008071204601F006FC4FF47A7000F07EFD74
:1002A80001224FF48071204601F0FCFB4FF47A7074
:1002B80000F074FDE9E700BF0008004870B58AB097
:1002C80005AD002405940694079408940994204BDE
:1002D800DA6C42F00402DA64DA6C02F00402019289
:1002E800019ADA6C42F02002DA64DA6C02F0200239
:1002F8000292029ADA6C42F00202DA64DA6C02F0D4
:1003080002020392039ADA6C42F00102DA64DB6CAF
:1003180003F001030493049B0E4E01224FF47F4126
:10032800304601F0BFFB4FF47F430593012306934A
:10033800079308942946304601F0CAFA0323059327
:10034800069407942946044801F0C2FA0AB070BD21
:1003580000100240000800480004004808B517488B
:10036800174B03604FF41653436000238360C36048
:1003780003610C2242618361C36103624362836249
:1003880000F0FAFB70B900210C4800F072FC60B96B
:1003980000210A4800F092FC50B9084800F04AFCD5
:1003A80048B908BDFFF72EFFEDE7FFF72BFFEFE792
:1003B800FFF728FFF1E7FFF725FFF2E70C00002021
:1003C8000038014010B598B00446002113911491EB
:1003D800159116911791442202A801F00AFC22688F
:1003E800184B9A4201D018B010BD0123029302A8FD
:1003F80001F0F8F810BB144B1A6E42F480421A66EA
:100408001A6E02F480420092009ADA6C42F00102FD
:10041800DA64DB6C03F001030193019B4FF4C063C2
:10042800139302231493002315931693072317930A
:1004380013A94FF0904001F04BFAD4E7FFF7E2FE22
:10044800D9E700BF0038014000100240FEE7FEE790
:10045800FEE7FEE7FEE770477047704708B500F013
:100468008BFC08BD00B583B00B4B1A6E42F001023D
:100478001A661A6E02F001020092009A9A6D42F012
:1004880080529A659B6D03F080530193019B00F0A5
:100498008BF803B000BD00BF00100240002836D121
:1004A8003E4B1B6803F4C063B3F5806F08D03B4A2A
:1004B800D2F8803023F48073C2F88030002070476F
:1004C800364AD2F8803023F48073C2F8803013683B
:1004D80023F4C06343F400731360314B1B6832226A
:1004E80002FB03F32F4AA2FB03239B0C013300E01A
:1004F800013B2A4A526912F4806F01D0002BF7D1D0
:10050800264B5B6913F4806F44D100207047B0F527
:10051800007F08D0214A136823F4C06343F4806342
:100528001360002070471D4B1B6803F4C063B3F5CC
:10053800806F08D0194AD2F8803043F48073C2F82B
:10054800803000207047154AD2F8803043F4807319
:10055800C2F88030136823F4C06343F40073136057
:100568000F4B1B68322202FB03F30E4AA2FB032344
:100578009B0C013300E0013B084A526912F4806F7A
:1005880001D0002BF7D1054B5B6913F4806F03D1C1
:100598000020704703207047032070470070004018
:1005A8000800002083DE1B43024A936843F480431B
:1005B8009360704700700040026852E8003F23F4DF
:1005C800907342E800310029F6D1026802F108036D
:1005D80053E8003F23F0805323F00103083242E838
:1005E80000310029F1D1C36E012B06D02023C0F8B9
:1005F8008C300023C36643677047026852E8003FA7
:1006080023F0100342E800310029F6D1EEE700009C
:1006180038B5044683680269134342691343C269C3
:10062800134301680868A14A02401A430A60226815
:10063800536823F44053E1680B435360A16922686F
:100648009B4B9A4201D0236A1943936823F06E4367
:1006580023F430630B4393602268D36A23F00F03BB
:10066800616A0B43D3622368924A934223D0924A29
:10067800934233D0914A934243D0914A934253D004
:100688008B4A934263D0102289498B4200F09380B1
:10069800E069B0F5004F00F0D280022A00F04681F0
:1006A80040F21681042A00F03E81082A40F01881A1
:1006B8004FF4004019E102F55842D2F8882002F0C0
:1006C8000302022A59D005D8002A58D0012A58D145
:1006D8000422D9E7032A56D10822D5E702F5E632E3
:1006E800D2F8882002F00C02082A4ED005D8002A39
:1006F800CAD0042AC8D01022C6E70C2A47D108223B
:10070800C2E702F5E432D2F8882002F03002202A4B
:100718003FD005D8002AB7D0102A3CD10422B3E72D
:10072800302A3AD10822AFE702F5E232D2F888201F
:1007380002F0C002802A32D005D8002AA4D0402A6C
:100748002FD10422A0E7C02A2DD108229CE702F568
:10075800C832D2F8882002F44062B2F5006F24D083
:1007680006D8002A90D0B2F5806F20D104228BE7FA
:10077800B2F5406F1DD1082286E7022284E70122E4
:1007880082E7102280E710227EE702227CE710220F
:100798007AE7022278E7102276E7102274E702222D
:1007A80072E7102270E710226EE702226CE710222F
:1007B8006AE7102268E7042A3ED006D862B1022A06
:1007C80001D140480DE00120A4E0082A02D14FF4ED
:1007D800004006E001209DE000F0E0FE002800F067
:1007E8009980626A384B33F81220B0FBF2F36568DF
:1007F80005EB4501994200F29B80B3EB053F00F2FF
:10080800998000231946FFF7E3FC090241EA1061C9
:1008180000022A466B08C0184FF0000341F100019E
:10082800FFF7D6FCA0F54072284B9A4200F284806C
:100838002368D86000206DE000F064FDCEE7022A4E
:1008480031D005D9042A2BD0082A0DD0012061E027
:1008580032B1012A02D100F0B3FE03E0012059E0D1
:1008680000F09CFE002855D0626A174B33F812300E
:10087800B0FBF3F06268530803EB4003B3FBF2F3F9
:10088800A3F110014FF6EF72914257D89AB222F0B5
:100898000F02C3F3420313432268D360002039E0F8
:1008A80000F030FDDEE70748DEE700BFF369FFCF61
:1008B80000800040003801400044004000480040EB
:1008C800004C00400024F4008C1F0008FFFC0F00BF
:1008D80042B1012A02D100F073FE05E0012019E0BF
:1008E800012017E000F05AFEA0B1626A154B33F8F8
:1008F8001230B0FBF3F0636800EB5300B0FBF3F089
:10090800A0F110024FF6EF739A4219D8236880B20B
:10091800D86000200123A4F86A30A4F868300023C6
:100928006367A36738BD00F0EDFCDDE70648DCE748
:100938000120EFE70120EDE70120EBE70120E9E7DF
:100948000120E7E78C1F00080024F400836A13F0F5
:10095800080F06D00268536823F40043816B0B43E9
:100968005360836A13F0010F06D00268536823F4BA
:100978000033C16A0B435360836A13F0020F06D039
:100988000268536823F48033016B0B435360836A16
:1009980013F0040F06D00268536823F48023416BD8
:1009A8000B435360836A13F0100F06D002689368F4
:1009B80023F48053C16B0B439360836A13F0200FB9
:1009C80006D00268936823F40053016C0B439360CC
:1009D800836A13F0400F0AD00268536823F4801327
:1009E800416C0B435360436CB3F5801F0BD0836A93
:1009F80013F0800F06D00268536823F40023C16CFB
:100A08000B43536070470268536823F4C003816C3A
:100A18000B435360EBE72DE9F04104460D461646BB
:100A28009846069F2368DB6935EA03030CBF4FF03D
:100A3800010C4FF0000CB44534D1B7F1FF3FF1D0B1
:100A480000F0A6F94346C01AB8422ED87FB32368EF
:100A58001A6812F0040FE5D0802DE3D0402DE1D0C4
:100A6800DA6912F0080F11D1DA6912F4006FD9D0DF
:100A78004FF400621A622046FFF79EFD2023C4F857
:100A88009030002384F8843003200CE008251D6290
:100A98002046FFF791FDC4F89050002384F8843075
:100AA800012000E00020BDE8F0810320FBE70320DF
:100AB800F9E730B583B004460023C0F8903000F061
:100AC80067F905462268126812F0080F10D12368EA
:100AD8001B6813F0040F27D12023C4F88830C4F80A
:100AE8008C300020E066206784F8840003B030BDB5
:100AF8006FF07E430093034600224FF40011204616
:100B0800FFF789FF0028E2D0226852E8003F23F06F
:100B1800800342E800310029F6D12023C4F8883048
:100B280084F884100320E1E76FF07E4300932B469E
:100B380000224FF480012046FFF76DFF0028CBD03C
:100B4800226852E8003F23F4907342E800310029FC
:100B5800F6D1226802F1080353E8003F23F00103AD
:100B6800083242E800310029F3D12023C4F88C3040
:100B780084F884100320B9E778B310B50446D0F898
:100B880088300BB32423C4F888302268136823F014
:100B980001031360A36AE3B92046FFF739FD012872
:100BA80011D02268536823F49043536022689368F5
:100BB80023F02A0393602268136843F0010313604B
:100BC8002046FFF776FF10BD80F88430FFF7FAFB68
:100BD800D8E72046FFF7BAFEDEE70120704700009D
:100BE800436E2BB90123A0F86A30A0F8683070472B
:100BF80000B503689A68C2F342629968490FDFF842
:100C08002CE01EF80130DB00DFF824C01CF80110CE
:100C180093FBF1F3A0F86A301EF80230DB001CF8F1
:100C2800022093FBF2F3A0F8683000BDAC1F000867
:100C3800A41F000890F88430012B18D0012380F8F5
:100C480084302423C0F8883003681A68196821F0B2
:100C58000101196022F000520023436601680A600E
:100C68002022C0F8882080F8843018467047022077
:100C7800704738B590F88430012B1DD00446012305
:100C880080F884302423C0F8883003681D681A6807
:100C980022F001021A600268936823F06043194346
:100CA8009160FFF79DFF23681D602023C4F88830FA
:100CB800002084F8840038BD0220FCE738B590F89D
:100CC8008430012B1DD00446012380F8843024236E
:100CD800C0F8883003681D681A6822F001021A609B
:100CE8000268936823F0606319439160FFF778FF07
:100CF80023681D602023C4F88830002084F884000D
:100D080038BD0220FCE70000104B1B680BB901201E
:100D1800704710B504460E4A10684FF47A72B2FB59
:100D2800F3F3B0FBF3F000F01DFF68B90F2C01D905
:100D380001200AE0024621464FF0FF3000F002FF92
:100D4800044B1C60002000E0012010BD00000020C2
:100D5800080000200400002010B5032000F0E0FE89
:100D68000F20FFF7D1FF18B101231C46204610BD04
:100D78000446FFF777FBF9E7034A13680349096854
:100D88000B441360704700BFA00000200000002043
:100D9800014B1868704700BFA000002038B5044612
:100DA800FFF7F6FF0546B4F1FF3F02D0044B1B687E
:100DB8001C44FFF7EDFF401BA042FAD338BD00BF2B
:100DC80000000020124BDA6802F00302DB68C3F36C
:100DD80003130133032A11D00E48B0FBF3F00C4B78
:100DE800DB68C3F3062303FB00F0094BDB68C3F39E
:100DF800416301335B00B0FBF3F070470648B0FB7A
:100E0800F3F0034BDB68C3F3062303FB00F0ECE7C6
:100E1800001002400024F40000366E01002800F0A3
:100E2800518270B582B00446036813F0010F37D0C1
:100E3800A54A936803F00C03D26802F003020C2B56
:100E480023D0082B23D06368B3F5803F4ED0B3F589
:100E5800A02F51D09C4B1A6822F480321A601A686D
:100E680022F480221A606368002B52D0FFF790FFAB
:100E78000546954B1B6813F4003F11D1FFF788FF17
:100E8800401B6428F5D9032025E2032AD9D18E4BCB
:100E98001B6813F4003F03D06368002B00F0148232
:100EA800236813F0020F5DD0874A936803F00C03A0
:100EB800D26802F003020C2B3AD0042B3AD0E36834
:100EC800002B75D0804A136843F480731360FFF7D2
:100ED8005FFF05467C4B1B6813F4806F5FD1FFF7FB
:100EE80057FF401B0228F5D90320F4E1764A13681E
:100EF80043F480331360B6E703F18043A3F53C3332
:100F08001A6842F480221A601A6842F480321A6021
:100F1800A9E7FFF73DFF05466B4B1B6813F4003F3D
:100F2800BED0FFF735FF401B6428F5D90320D2E176
:100F3800022AC2D1644B1B6813F4806F03D0E368A4
:100F4800002B00F0C381604A536823F0FE432169F7
:100F580043EA016353605D4B1868FFF7D5FE00282C
:100F680040F0B681236813F0080F4CD063699BB337
:100F7800554AD2F8943043F00103C2F89430FFF791
:100F880007FF0546504BD3F8943013F0020F3AD1BF
:100F9800FFF7FEFE401B0228F4D903209BE14A4AD2
:100FA800536823F0FE43216943EA01635360D9E79C
:100FB800454A136823F480731360FFF7E9FE05467A
:100FC800414B1B6813F4806FCCD0FFF7E1FE401B48
:100FD8000228F5D903207EE13B4AD2F8943023F069
:100FE8000103C2F89430FFF7D3FE0546364BD3F819
:100FF800943013F0020F06D0FFF7CAFE401B0228F8
:10100800F4D9032067E1236813F0040F00F083800C
:101018002D4B9B6D13F0805F37D12B4B9A6D42F0AF
:1010280080529A659B6D03F080530193019B0123C5
:101038001E46274B1B6813F4807F29D0A368012B19
:101048003AD0052B46D0204BD3F8902022F001024D
:10105800C3F89020D3F8902022F00402C3F890201F
:10106800A368002B44D0FFF793FE0546164BD3F830
:10107800903013F0020F4DD1FFF78AFE401B41F26A
:1010880088339842F2D9032025E100231E46D0E791
:101098000F4A136843F480731360FFF779FE05461F
:1010A8000B4B1B6813F4807FC8D1FFF771FE401B00
:1010B8000228F5D903200EE1034AD2F8903043F014
:1010C8000103C2F89030CBE7001002400400002072
:1010D80000700040884BD3F8902042F00402C3F817
:1010E8009020D3F8902042F00102C3F89020B7E78F
:1010F800FFF74EFE0546804BD3F8903013F0020FF1
:1011080008D0FFF745FE401B41F288339842F2D9D8
:101118000320E0E0E6B9236813F0200F35D0A36977
:10112800E3B1754AD2F8983043F00103C2F8983019
:10113800FFF72EFE0546704BD3F8983013F0020FD8
:1011480023D1FFF725FE401B0228F4D90320C2E073
:10115800694A936D23F080539365DCE7664AD2F8B9
:10116800983023F00103C2F89830FFF711FE0546C6
:10117800614BD3F8983013F0020F06D0FFF708FE42
:10118800401B0228F4D90320A5E0E369002B00F0F6
:10119800A180594A926802F00C020C2A64D0022BF2
:1011A80013D0554A136823F080731360FFF7F0FDDE
:1011B8000446514B1B6813F0007F4ED0FFF7E8FD43
:1011C800001B0228F5D9032085E04B4A136823F059
:1011D80080731360FFF7DCFD0546474B1B6813F06F
:1011E800007F06D0FFF7D4FD401B0228F5D9032065
:1011F80071E0414AD36841491940236A606A01385D
:1012080043EA0013A06A43EA0023206B4008013830
:1012180043EA4053606B4008013843EA4063E06AA0
:1012280043EAC0631943D160136843F080731360C5
:10123800D36843F08073D360FFF7AAFD04462E4BB2
:101248001B6813F0007F06D1FFF7A2FD001B0228E0
:10125800F5D903203FE000203DE0274AD168284B1C
:101268000B40D360002036E0012B36D0224BDB68E0
:1012780003F00301226A914231D103F0F002616A5E
:101288000139B2EB011F2CD103F4FE42A16AB2EB83
:10129800012F28D103F07842E16AB2EBC16F24D163
:1012A80003F4C001226B5208013AB1EB425F1ED130
:1012B80003F0C063626B5208013AB3EB426F18D176
:1012C800002008E001207047012004E0012002E02E
:1012D800012000E0184602B070BD0120FBE70120A4
:1012E800F9E70120F7E70120F5E70120F3E70120FE
:1012F800F1E70120EFE700BF001002400C809F01DA
:10130800FCFFEEFE1E4B9B6803F00C03042B33D04E
:101318001B4B9B6803F00C03082B2FD0184B9B68C2
:1013280003F00C030C2B01D000207047144BDA6833
:1013380002F00302DB68C3F303130133032A11D05D
:101348001048B0FBF3F00E4BDB68C3F3062303FB36
:1013580000F00B4BDB68C3F3416301335B00B0FB68
:10136800F3F070470848B0FBF3F0054BDB68C3F3B4
:10137800062303FB00F0ECE7024870470248704779
:10138800001002400024F40000366E01002800F02E
:10139800ED80F8B50C460546774B1B6803F00F0344
:1013A8008B420BD2744A136823F00F030B4313606C
:1013B800136803F00F038B4240F0DA802B6813F0B8
:1013C80001031F4665D06B68032B30D0022B50D029
:1013D8006A4B1B6813F4806F00F0CC80FFF792FF14
:1013E800674B984252D9654A936823F0F00343F05B
:1013F8008003936080231F46604A936823F00303A9
:1014080069680B439360FFF7C3FC06465B4B9B6818
:1014180003F00C036A68B3EB820F3AD0FFF7B8FC0D
:10142800801B41F288339842F0D903207DE0534B6A
:101438001B6813F0007F01D1012076E0FFF7C2FCA2
:101448004F4B98421CD94D4B9B6813F0F00F06D0B8
:101458002B6813F002031F46CED0AB689BB9474AEE
:10146800936823F0F00343F08003936080231F46C2
:10147800C2E7424B1B6813F4003FAFD1012054E090
:1014880000231F46B8E700231F46B5E700231F4681
:10149800B2E72B6813F0020F48D013F0040F04D002
:1014A800364A936843F4E06393602B6813F0080F9F
:1014B80006D0324A936823F47C5343F4E063936084
:1014C8002E4A936823F0F003A9680B4393602A4BD4
:1014D8001B6803F00F03A34230D82B6813F0040FE6
:1014E80006D0264A936823F4E063E9680B439360C7
:1014F8002B6813F0080F07D0204A936823F4605331
:10150800296943EAC1039360FFF7FCFE1B4B9B6804
:10151800C3F303131B4AD35C03F01F03D8401A4BD1
:1015280018601A4B1868FFF7EFFBF8BD802FCED173
:10153800124A936823F0F0039360C8E70E4A1368D1
:1015480023F00F0323431360FFF722FC06460A4BE0
:101558001B6803F00F03A342BFD0FFF719FC801BE1
:1015680041F288339842F2D90320DEE70120704720
:101578000120DAE70120D8E70020024000100240ED
:1015880000B4C404BC1F00080800002004000020A8
:10159800014B1868704700BF0800002008B5FFF726
:1015A800F7FF054B9B68C3F30223044AD35C03F09F
:1015B8001F03D84008BD00BF00100240B41F000838
:1015C80008B5FFF7E5FF054B9B68C3F3C223044A40
:1015D800D35C03F01F03D84008BD00BF00100240D1
:1015E800B41F0008F0B583B00446036813F4002F55
:1015F8006BD0AD4B9B6D13F0805F1FD1AA4B9A6DDA
:1016080042F080529A659B6D03F080530193019BD1
:1016180001231E46A54A136843F480731360FFF73D
:10162800B7FB0546A14B1B6813F4807F09D1FFF770
:10163800AFFB401B0228F5D9032503E000231E4613
:10164800E8E7002545BB984BD3F8903013F4407376
:1016580018D0226C9A4212D0934AD2F8903023F4D0
:101668004073D2F8901041F48031C2F89010D2F84B
:10167800901021F48031C2F89010C2F8903013F025
:10168800010F10D145B9884AD2F8903023F440733D
:10169800216C0B43C2F89030C6B1834A936D23F096
:1016A8008053936512E0FFF773FB07467E4BD3F830
:1016B800903013F0020FE5D1FFF76AFBC01B41F22F
:1016C80088339842F2D90325DCE70025236813F014
:1016D800010F08D0744AD2F8883023F003036168F8
:1016E8000B43C2F88830236813F0020F08D06E4A03
:1016F800D2F8883023F00C03A1680B43C2F8883075
:10170800236813F0040F08D0674AD2F8883023F012
:101718003003E1680B43C2F88830236813F0080FE0
:1017280008D0614AD2F8883023F0C00321690B43FE
:10173800C2F88830236813F0200F08D05A4AD2F82C
:10174800883023F4406361690B43C2F8883023680A
:1017580013F0400F08D0544AD2F8883023F440538D
:10176800A1690B43C2F88830236813F0800F08D0B2
:101778004D4AD2F8883023F44043E1690B43C2F85C
:101788008830236813F4807F08D0474AD2F888301D
:1017980023F44033216A0B43C2F88830236813F4DA
:1017A800007F08D0404AD2F8883023F44023616A89
:1017B8000B43C2F88830236813F4806F0CD03A4A80
:1017C800D2F8883023F44013A16A0B43C2F888305A
:1017D800A36AB3F5801F57D0236813F4006F0CD0A9
:1017E800314AD2F8883023F44003E16A0B43C2F847
:1017F8008830E36AB3F5800F4BD0236813F4805F19
:101808000CD0294AD2F8883023F04073216B0B435F
:10181800C2F88830236BB3F1807F3FD0236813F47C
:10182800005F0CD0204AD2F8883023F04063616B07
:101838000B43C2F88830636BB3F1006F38D023686C
:1018480013F4804F0CD0184AD2F8883023F0406344
:10185800A16B0B43C2F88830A36BB3F1006F2CD097
:10186800236813F4004F0CD00F4AD2F8883023F0C5
:101878004053E16B0B43C2F88830E36BB3F1805FF0
:1018880020D0284603B0F0BDD36843F48013D3605A
:10189800A2E7D36843F48013D360AEE7D36843F478
:1018A8008013D360BAE700BF001002400070004008
:1018B800D36843F48013D360C1E7D36843F480133B
:1018C800D360CDE7D36843F48033D360D9E700BF52
:1018D80070B582B08646002363E0DEF808405D00FC
:1018E8000320A84024EA0004C868A8402043CEF892
:1018F8000800DEF8044024EA0C044868C0F300102D
:1019080098402043CEF804005CE0DC0808345EF818
:10191800240003F00705AD004FF00F0C0CFA05FC8E
:1019280020EA0C0C0869A84040EA0C004EF8240094
:101938005EE0052000E0002000FA0CF028430234A5
:10194800544D45F8240054488468D04324EA0205DD
:101958004E6816F4801F01D042EA04054E4CA5607B
:10196800E46800EA04054E6816F4001F01D042EA54
:101978000405494CE560646800EA04054E6816F4FD
:10198800003F01D042EA0405434C656024682040CA
:101998004D6815F4803F01D042EA04003E4A1060C9
:1019A80001330A6832FA03F071D04FF0010C0CFAD7
:1019B80003FC1CEA0202F3D0486800F00300013877
:1019C80001288AD9486800F0030003280BD0DEF804
:1019D8000C405D000320A84024EA00048868A84061
:1019E8002043CEF80C00486800F0030002288CD091
:1019F800DEF800005C004FF0030C0CFA04FC20EA4F
:101A08000C0C486800F00300A04040EA0C00CEF837
:101A18000000486810F4403FC2D02048046E44F0EB
:101A280001040466006E00F00100019001989C0812
:101A3800A51C184850F8255003F0030C4FEA8C0CED
:101A48000F2000FA0CF025EA0005BEF1904F3FF494
:101A580072AF1348864512D000F58060864510D0D5
:101A680000F5806086450ED000F5806086450CD074
:101A780000F5806086453FF45CAF06205CE70120F6
:101A88005AE7022058E7032056E7042054E702B03B
:101A980070BD00BF0000014000040140001002407A
:101AA800000400480AB181617047816270470000F4
:101AB800002808DB0901C9B200F1604000F5614067
:101AC80080F80013704700F00F000901C9B2014BFC
:101AD8001954704714ED00E000B500F00700A0F1BC
:101AE800030CBCF1040F07D8C0F1070E0430062818
:101AF80006D84FF0000C03E04FF0040E4FF0000C36
:101B08004FF0FF3303FA0EF021EA000101FA0CF15D
:101B180003FA0CF322EA030241EA020000BD0000C6
:101B2800074AD36823F4E0631B041B0C000200F48B
:101B3800E060034343F0BF6343F40033D36070476E
:101B480000ED00E010B50446054BD868C0F302204C
:101B5800FFF7C2FF01462046FFF7AAFF10BD00BFEE
:101B680000ED00E00138B0F1807F0BD24FF0E023A8
:101B78005861054AF02182F8231000209861072255
:101B88001A6170470120704700ED00E0034AD2F85F
:101B9800883043F47003C2F88830704700ED00E0E5
:101BA8000D488546FFF7F2FF0C480D490D4A002302
:101BB80002E0D458C4500433C4188C42F9D30A4AFA
:101BC8000A4C002301E013600432A242FBD300F068
:101BD80019F8FEF751FBFEE7008000200000002006
:101BE8000C000020D41F00080C000020A4000020D6
:101BF800FEE702440346934200D1704703F8011BF5
:101C0800F9E7000070B50D4B0D4C00261D1BB6EB17
:101C1800A50F09D100F0AAF90A4C0B4B00261D1B91
:101C2800B6EBA50F05D170BD54F8043B98470136B3
:101C3800EDE754F8043B98470136F1E7000000004F
:101C48000000000000000000000000002DE9F0473F
:101C580082B00646DDF828E00846B4460D46002B5B
:101C68004ED18A4214466DD9B2FA82F242B1C2F11B
:101C78002003954026FA03F394401D4306FA02FC1C
:101C8800260CA7B2B5FBF6F14FEA1C4306FB11552B
:101C980043EA054301FB07F0984209D9E31801F12B
:101CA800FF3580F00381984240F2008102392344D5
:101CB8001B1A1FFA8CFCB3FBF6F006FB10334CEA38
:101CC800034C00FB07F363450AD914EB0C0C00F135
:101CD800FF3580F0ED80634540F2EA80A444023885
:101CE80040EA0140ACEB030C0021BEF1000F04D028
:101CF8002CFA02F30022CEE9003202B0BDE8F087E8
:101D08008B4209D9BEF1000F01D0CEE90061002154
:101D1800084602B0BDE8F087B3FA83F117460029F8
:101D28004DD1834202D3B24200F20F81B6EB070CC9
:101D380060EB030301201D46BEF1000FDDD0CEE9A4
:101D480000C5DAE7002A00F098801A46B4FA84F34E
:101D5800002B40F0AF800B1B270CA6B20121B3FB70
:101D6800F7F54FEA1C4007FB153340EA034306FB2F
:101D780005F8984507D9E31805F1FF3002D29845D0
:101D880000F2E8800546A3EB08031FFA8CFCB3FBBE
:101D9800F7F007FB10334CEA034C06FB00F36345EE
:101DA80008D914EB0C0C00F1FF3602D2634500F29F
:101DB800CE803046ACEB030C40EA054095E7C1F114
:101DC80020058B4022FA05FC4CEA030C00FA01F4CA
:101DD80026FA05F3E84002FA01F943EA04084FEA53
:101DE8001C4206FA01FAB0FBF2F71FFA8CF602FB66
:101DF80017004FEA184444EA004407FB06F0A042E3
:101E08000AD91CEB040407F1FF3380F09C80A04240
:101E180040F29980023F6444241A1FFA88F3B4FB05
:101E2800F2F002FB104443EA044300FB06F69E422C
:101E380009D91CEB030300F1FF3480F082809E4235
:101E48007FD90238634440EA0740A0FB09749B1B12
:101E5800A3423E46A04664D361D0BEF1000F0AD02B
:101E6800BAEB060263EB080303FA05F5CA4015430B
:101E7800CB40CEE9005300213FE7730843EAC17322
:101E88004A08190C41EA02414FEAC67C9BB2B2FBF0
:101E9800F4F02646A04627461F2243EA0143B1FB39
:101EA800F4F1A3EB080341EA004158E72946FFE6AD
:101EB800284615E71A46C3F120019C4026FA01F38B
:101EC80020FA01F190400343270C06FA02FCB1FB0B
:101ED800F7F0A6B207FB1015190C41EA054100FB03
:101EE80006F58D423BD9611801D28D4220D8491B95
:101EF8000138B1FBF7F5019505FB06F8019D9BB28A
:101F080007FB151143EA0143434526D2E31805F1BF
:101F1800FF31C6D24345C4D2A91E2344C1E7BA45FE
:101F28009BD2B7EB090664EB0C040138A04694E792
:101F3800651B29440238B1FBF7F5019505FB06F846
:101F4800DCE720467FE71F4666E70846F4E6A44438
:101F580002382FE7023D234415E70199A1E7491B01
:101F6800B1FBF7F5019505FB06F8C7E7F8B500BF23
:101F7800F8BC08BC9E467047F8B500BFF8BC08BC62
:041F88009E467047BA
:101F8C00010002000400060008000A000C0010000A
:101F9C002000400080000001080402040801010137
:101FAC00010101030701000000000000010203040D
:101FBC0000000000000000000102030406070809ED
:081FCC0088FCFF7F010000000A
:0C1FD40001000000100000000024F400D8
:0400000508001BA92B
:00000001FF
